{
  "contractName": "GBWorldCupVotingGame",
  "abi": [
    {
      "constant": true,
      "inputs": [],
      "name": "gameReferee",
      "outputs": [
        {
          "name": "",
          "type": "address"
        }
      ],
      "payable": false,
      "stateMutability": "view",
      "type": "function"
    },
    {
      "constant": true,
      "inputs": [
        {
          "name": "",
          "type": "uint256"
        }
      ],
      "name": "teamNames",
      "outputs": [
        {
          "name": "",
          "type": "bytes32"
        }
      ],
      "payable": false,
      "stateMutability": "view",
      "type": "function"
    },
    {
      "inputs": [
        {
          "name": "_teamNames",
          "type": "bytes32[]"
        }
      ],
      "payable": false,
      "stateMutability": "nonpayable",
      "type": "constructor"
    },
    {
      "anonymous": false,
      "inputs": [
        {
          "indexed": true,
          "name": "gameIteration",
          "type": "uint256"
        },
        {
          "indexed": false,
          "name": "referee",
          "type": "address"
        }
      ],
      "name": "GameStarted",
      "type": "event"
    },
    {
      "anonymous": false,
      "inputs": [
        {
          "indexed": true,
          "name": "gameIteration",
          "type": "uint256"
        },
        {
          "indexed": false,
          "name": "voter",
          "type": "address"
        },
        {
          "indexed": false,
          "name": "teamName",
          "type": "bytes32"
        },
        {
          "indexed": false,
          "name": "backingInWei",
          "type": "uint256"
        }
      ],
      "name": "NewVote",
      "type": "event"
    },
    {
      "anonymous": false,
      "inputs": [
        {
          "indexed": true,
          "name": "gameIteration",
          "type": "uint256"
        },
        {
          "indexed": false,
          "name": "winningTeam",
          "type": "bytes32"
        }
      ],
      "name": "WinnerDeclared",
      "type": "event"
    },
    {
      "anonymous": false,
      "inputs": [
        {
          "indexed": true,
          "name": "gameIteration",
          "type": "uint256"
        }
      ],
      "name": "PayoutsCompleted",
      "type": "event"
    },
    {
      "constant": false,
      "inputs": [
        {
          "name": "_teamName",
          "type": "bytes32"
        }
      ],
      "name": "voteForTeam",
      "outputs": [],
      "payable": true,
      "stateMutability": "payable",
      "type": "function"
    },
    {
      "constant": false,
      "inputs": [],
      "name": "restartGame",
      "outputs": [],
      "payable": false,
      "stateMutability": "nonpayable",
      "type": "function"
    },
    {
      "constant": false,
      "inputs": [
        {
          "name": "winningTeam",
          "type": "bytes32"
        }
      ],
      "name": "declareWinner",
      "outputs": [],
      "payable": false,
      "stateMutability": "nonpayable",
      "type": "function"
    },
    {
      "constant": true,
      "inputs": [],
      "name": "getGameIteration",
      "outputs": [
        {
          "name": "",
          "type": "uint8"
        }
      ],
      "payable": false,
      "stateMutability": "view",
      "type": "function"
    },
    {
      "constant": true,
      "inputs": [],
      "name": "getCurrentState",
      "outputs": [
        {
          "name": "",
          "type": "uint8"
        }
      ],
      "payable": false,
      "stateMutability": "view",
      "type": "function"
    },
    {
      "constant": true,
      "inputs": [],
      "name": "getTeamNames",
      "outputs": [
        {
          "name": "",
          "type": "bytes32[]"
        }
      ],
      "payable": false,
      "stateMutability": "view",
      "type": "function"
    },
    {
      "constant": true,
      "inputs": [],
      "name": "getTeamCount",
      "outputs": [
        {
          "name": "",
          "type": "uint256"
        }
      ],
      "payable": false,
      "stateMutability": "view",
      "type": "function"
    },
    {
      "constant": true,
      "inputs": [],
      "name": "getTotalVoteCount",
      "outputs": [
        {
          "name": "",
          "type": "uint256"
        }
      ],
      "payable": false,
      "stateMutability": "view",
      "type": "function"
    },
    {
      "constant": true,
      "inputs": [],
      "name": "getTotalVoteBackingInWei",
      "outputs": [
        {
          "name": "",
          "type": "uint256"
        }
      ],
      "payable": false,
      "stateMutability": "view",
      "type": "function"
    },
    {
      "constant": true,
      "inputs": [
        {
          "name": "_teamName",
          "type": "bytes32"
        }
      ],
      "name": "getVoteCountForTeam",
      "outputs": [
        {
          "name": "",
          "type": "uint256"
        }
      ],
      "payable": false,
      "stateMutability": "view",
      "type": "function"
    },
    {
      "constant": true,
      "inputs": [
        {
          "name": "_teamName",
          "type": "bytes32"
        }
      ],
      "name": "getVoteBackingInWeiForTeam",
      "outputs": [
        {
          "name": "",
          "type": "uint256"
        }
      ],
      "payable": false,
      "stateMutability": "view",
      "type": "function"
    },
    {
      "constant": true,
      "inputs": [
        {
          "name": "_teamName",
          "type": "bytes32"
        }
      ],
      "name": "validTeamName",
      "outputs": [
        {
          "name": "",
          "type": "bool"
        }
      ],
      "payable": false,
      "stateMutability": "view",
      "type": "function"
    }
  ],
  "bytecode": "0x608060405234801561001057600080fd5b50604051620010a2380380620010a28339810180604052810190808051820192919050505060006001600660006101000a81548160ff021916908360ff1602179055506000600460006101000a81548160ff0219169083600281111561007257fe5b0217905550816005908051906020019061008d9291906101c6565b5033600460016101000a81548173ffffffffffffffffffffffffffffffffffffffff021916908373ffffffffffffffffffffffffffffffffffffffff160217905550600090505b6005805490508110156101275760008060006005848154811015156100f557fe5b9060005260206000200154600019166000191681526020019081526020016000208190555080806001019150506100d4565b600660009054906101000a900460ff1660ff167ffadb9547847a0c2c31f4c02590545e318d33d7aae99071caecf3fa4ce3cd7dca600460019054906101000a900473ffffffffffffffffffffffffffffffffffffffff16604051808273ffffffffffffffffffffffffffffffffffffffff1673ffffffffffffffffffffffffffffffffffffffff16815260200191505060405180910390a2505061023e565b828054828255906000526020600020908101928215610208579160200282015b828111156102075782518290600019169055916020019190600101906101e6565b5b5090506102159190610219565b5090565b61023b91905b8082111561023757600081600090555060010161021f565b5090565b90565b610e54806200024e6000396000f3006080604052600436106100d0576000357c0100000000000000000000000000000000000000000000000000000000900463ffffffff1680630da3f373146100d55780631ebee98f14610100578063288c72e8146101575780632b628e8914610182578063378aa701146101b35780633d695778146101ec5780635ae725f7146102105780638d25af041461025957806392d79b76146102705780639905a9f7146102a1578063d635d3b5146102cc578063db42fba114610338578063dd730d8d14610381578063f07d0a9e146103c6575b600080fd5b3480156100e157600080fd5b506100ea61040b565b6040518082815260200191505060405180910390f35b34801561010c57600080fd5b50610115610415565b604051808273ffffffffffffffffffffffffffffffffffffffff1673ffffffffffffffffffffffffffffffffffffffff16815260200191505060405180910390f35b34801561016357600080fd5b5061016c61043b565b6040518082815260200191505060405180910390f35b34801561018e57600080fd5b50610197610445565b604051808260ff1660ff16815260200191505060405180910390f35b3480156101bf57600080fd5b506101c861045c565b604051808260028111156101d857fe5b60ff16815260200191505060405180910390f35b61020e6004803603810190808035600019169060200190929190505050610473565b005b34801561021c57600080fd5b5061023b600480360381019080803590602001909291905050506106d0565b60405180826000191660001916815260200191505060405180910390f35b34801561026557600080fd5b5061026e6106f3565b005b34801561027c57600080fd5b5061029f6004803603810190808035600019169060200190929190505050610957565b005b3480156102ad57600080fd5b506102b6610b0d565b6040518082815260200191505060405180910390f35b3480156102d857600080fd5b506102e1610b1a565b6040518080602001828103825283818151815260200191508051906020019060200280838360005b83811015610324578082015181840152602081019050610309565b505050509050019250505060405180910390f35b34801561034457600080fd5b506103676004803603810190808035600019169060200190929190505050610b76565b604051808215151515815260200191505060405180910390f35b34801561038d57600080fd5b506103b06004803603810190808035600019169060200190929190505050610bd5565b6040518082815260200191505060405180910390f35b3480156103d257600080fd5b506103f56004803603810190808035600019169060200190929190505050610c7a565b6040518082815260200191505060405180910390f35b6000600354905090565b600460019054906101000a900473ffffffffffffffffffffffffffffffffffffffff1681565b6000600254905090565b6000600660009054906101000a900460ff16905090565b6000600460009054906101000a900460ff16905090565b600080600080600281111561048457fe5b600460009054906101000a900460ff16600281111561049f57fe5b1415156104ab57600080fd5b6104b484610b76565b1515610528576040517f08c379a00000000000000000000000000000000000000000000000000000000081526004018080602001828103825260118152602001807f696e76616c6964207465616d206e616d6500000000000000000000000000000081525060200191505060405180910390fd5b3492503391508260008086600019166000191681526020019081526020016000206000828254019250508190555060016000856000191660001916815260200190815260200160002060408051908101604052808473ffffffffffffffffffffffffffffffffffffffff168152602001858152509080600181540180825580915050906001820390600052602060002090600202016000909192909190915060008201518160000160006101000a81548173ffffffffffffffffffffffffffffffffffffffff021916908373ffffffffffffffffffffffffffffffffffffffff16021790555060208201518160010155505050600160026000828254019250508190555082600360008282540192505081905550600660009054906101000a900460ff1660ff167f9d0213e97a05c089b451843d4514deabc8a0fc680cacfb14c3f9220af3ad568b838686604051808473ffffffffffffffffffffffffffffffffffffffff1673ffffffffffffffffffffffffffffffffffffffff1681526020018360001916600019168152602001828152602001935050505060405180910390a250505050565b6005818154811015156106df57fe5b906000526020600020016000915090505481565b6000600460019054906101000a900473ffffffffffffffffffffffffffffffffffffffff1673ffffffffffffffffffffffffffffffffffffffff163373ffffffffffffffffffffffffffffffffffffffff1614151561075157600080fd5b600280600281111561075f57fe5b600460009054906101000a900460ff16600281111561077a57fe5b14151561078657600080fd5b60ff600660009054906101000a900460ff1660ff1614156107c2576000600660006101000a81548160ff021916908360ff1602179055506107f1565b6001600660008282829054906101000a900460ff160192506101000a81548160ff021916908360ff1602179055505b60006002819055506000600381905550600091505b6005805490508210156108975760008060058481548110151561082557fe5b906000526020600020015460001916600019168152602001908152602001600020600090556001600060058481548110151561085d57fe5b906000526020600020015460001916600019168152602001908152602001600020600061088a9190610db6565b8180600101925050610806565b6000600460006101000a81548160ff021916908360028111156108b657fe5b0217905550600660009054906101000a900460ff1660ff167ffadb9547847a0c2c31f4c02590545e318d33d7aae99071caecf3fa4ce3cd7dca600460019054906101000a900473ffffffffffffffffffffffffffffffffffffffff16604051808273ffffffffffffffffffffffffffffffffffffffff1673ffffffffffffffffffffffffffffffffffffffff16815260200191505060405180910390a25050565b600460019054906101000a900473ffffffffffffffffffffffffffffffffffffffff1673ffffffffffffffffffffffffffffffffffffffff163373ffffffffffffffffffffffffffffffffffffffff161415156109b357600080fd5b60008060028111156109c157fe5b600460009054906101000a900460ff1660028111156109dc57fe5b1415156109e857600080fd5b6109f182610b76565b1515610a8b576040517f08c379a00000000000000000000000000000000000000000000000000000000081526004018080602001828103825260238152602001807f6e6f6e6578697374656e74207465616d2073656c65637465642061732077696e81526020017f6e6572000000000000000000000000000000000000000000000000000000000081525060400191505060405180910390fd5b6001600460006101000a81548160ff02191690836002811115610aaa57fe5b0217905550600660009054906101000a900460ff1660ff167f6498c41fffe2484cb36d1d450fdcd21d0a82927f49c1cf7510d4d109c7ddb5d38360405180826000191660001916815260200191505060405180910390a2610b09610d1b565b5050565b6000600580549050905090565b60606005805480602002602001604051908101604052809291908181526020018280548015610b6c57602002820191906000526020600020905b81546000191681526020019060010190808311610b54575b5050505050905090565b600080600090505b600580549050811015610bca578260001916600582815481101515610b9f57fe5b9060005260206000200154600019161415610bbd5760019150610bcf565b8080600101915050610b7e565b600091505b50919050565b6000610be082610b76565b1515610c54576040517f08c379a00000000000000000000000000000000000000000000000000000000081526004018080602001828103825260118152602001807f696e76616c6964207465616d206e616d6500000000000000000000000000000081525060200191505060405180910390fd5b600160008360001916600019168152602001908152602001600020805490509050919050565b6000610c8582610b76565b1515610cf9576040517f08c379a00000000000000000000000000000000000000000000000000000000081526004018080602001828103825260118152602001807f696e76616c6964207465616d206e616d6500000000000000000000000000000081525060200191505060405180910390fd5b6000808360001916600019168152602001908152602001600020549050919050565b6001806002811115610d2957fe5b600460009054906101000a900460ff166002811115610d4457fe5b141515610d5057600080fd5b6002600460006101000a81548160ff02191690836002811115610d6f57fe5b0217905550600660009054906101000a900460ff1660ff167fe3989d394db3160c62af2ba8a851ea9ee1cdbffb90140a678d4622aa61d9f18760405160405180910390a250565b5080546000825560020290600052602060002090810190610dd79190610dda565b50565b610e2591905b80821115610e2157600080820160006101000a81549073ffffffffffffffffffffffffffffffffffffffff0219169055600182016000905550600201610de0565b5090565b905600a165627a7a723058203a6ee4c6b815db5432ee809696871675acad7c021a2e205ee895adc92a65b9560029",
  "source": "pragma solidity ^0.4.2;\n// Specify compiler version we are using.\n// Note: this code is written using the latest solidity best practices,\n// for example using 'constructor(){}' rather than 'function GBWorldCupVotingGame(){}'\n// and using string return values for require() statements\n\ncontract GBWorldCupVotingGame {\n    \n    /* CONTRACT STATE VARIABLES */\n    \n    // State machine for this voting game,\n    // tracking which state of gameplay we are in.\n    enum GameState { \n        AcceptingVotes,\n        WinnerDeclared,\n        PayoutsCompleted\n    }\n    \n    // A vote object tracks the address of the account that voted\n    // and the Ether backing the account staked against the vote (denominated in wei)\n    struct Vote {\n        address voter;\n        uint voteBackingInWei;\n    }\n    \n    // keep track of total Ether backing for each team (denominated in wei)\n    mapping (bytes32 => uint) teamBackingInWei;\n    \n    // keep track of Votes for each team, so that payouts can be computed in the future\n    mapping (bytes32 => Vote[]) teamVotes;\n    \n    uint totalNumVotes;\n    uint totalVoteBacking;\n    \n    // We include the 'private' here just for educational purposes.\n    // The use of 'private' does not hide the value of the variable.\n    // Contract data storage (on EtherScan, e.g.) would still reveal value of 'currentState'.\n    // It simply prevents solidity from making an automatic getter function for it\n    GameState private currentState; \n    GameState private constant INITIAL_STATE = GameState.AcceptingVotes;\n    \n    // The ONLY address that is allowed to declare game outcome\n    // and restart game\n    address public gameReferee;\n    \n    // Solidity doesn't let you pass in an array of strings in the constructor (yet).\n    // We will use an array of bytes32 instead to store the list of teams\n    // available for voting.\n    bytes32[] public teamNames;\n  \n    // max value = 255\n    uint8 private gameIterationCounter;\n    \n    /* CUSTOM FUNCTION MODIFIERS */\n    \n    modifier forRefereeOnly() {\n        require(msg.sender == gameReferee);\n        _;\n    }\n    \n    modifier inState(GameState _state) {\n        require(currentState == _state);\n        _;\n    }\n    \n    /* EVENTS */\n    event GameStarted(uint indexed gameIteration, address referee);\n    event NewVote(uint indexed gameIteration, address voter, bytes32 teamName, uint backingInWei);\n    event WinnerDeclared(uint indexed gameIteration, bytes32 winningTeam);\n    event PayoutsCompleted(uint indexed gameIteration);\n    \n    /* CONSTRUCTOR */\n    constructor(bytes32[] _teamNames) public {\n        \n        // This is the FIRST time the game is being played.\n        // subsequent iterations of the game will not require constructor to be called\n        gameIterationCounter = 1;\n        \n        // start out in the \"accepting votes\" state\n        currentState = INITIAL_STATE;\n        \n        // store a reference to this list of team names\n        // we'll be using it elsewhere in the contract\n        teamNames = _teamNames;\n        \n        // assign the role of referee to the creator of this contract\n        gameReferee = msg.sender;\n        \n        // go through each team name\n        for (uint i = 0; i < teamNames.length; i++) {\n            \n            // and initialize backing for all teams to zero.\n            // we'll increment this later as votes come in\n            teamBackingInWei[teamNames[i]] = 0;\n        }\n        \n        emit GameStarted(gameIterationCounter, gameReferee);\n    }\n    \n    /* FUNCTIONS (TRANSACTIONS) \n     * \n     * These change the state of our system,\n     * and take time to return.\n     */\n    \n    function voteForTeam(bytes32 _teamName) public payable inState(GameState.AcceptingVotes) {\n        \n        require(validTeamName(_teamName), \"invalid team name\");\n        \n        uint _voteBackingInWei = msg.value;\n        address _voter = msg.sender;\n        \n        teamBackingInWei[_teamName] += _voteBackingInWei;\n        teamVotes[_teamName].push(Vote({\n            voter: _voter,\n            voteBackingInWei: _voteBackingInWei\n        }));\n        \n        totalNumVotes += 1;\n        totalVoteBacking += _voteBackingInWei;\n\n        emit NewVote(gameIterationCounter, _voter, _teamName, _voteBackingInWei);\n    }\n    \n    function restartGame() public forRefereeOnly() inState(GameState.PayoutsCompleted) {\n        \n        // pro-actively handle overflow\n        if (gameIterationCounter == 255)\n            gameIterationCounter = 0;\n        else\n            gameIterationCounter += 1;\n\n        totalNumVotes = 0;\n        totalVoteBacking = 0;\n\n        // this should recover some gas\n        for(uint i = 0; i < teamNames.length; i++) {\n            delete teamBackingInWei[teamNames[i]];\n            delete teamVotes[teamNames[i]];\n        }\n\n        // reset state\n        currentState = GameState.AcceptingVotes;\n\n        emit GameStarted(gameIterationCounter, gameReferee);\n    }\n\n    function declareWinner(bytes32 winningTeam) public forRefereeOnly() inState(GameState.AcceptingVotes) {\n\n        require(validTeamName(winningTeam), \"nonexistent team selected as winner\");\n\n        //update state \n        currentState = GameState.WinnerDeclared;\n        \n        emit WinnerDeclared(gameIterationCounter, winningTeam);\n\n        //call doPayouts\n        doPayouts();\n    }\n    \n    // \"private\" means this function is only visible to this contract.\n    // can only be called from within this contract\n    function doPayouts() private inState(GameState.WinnerDeclared) {\n        \n        // send money to people\n\n        //finally, update state \n        currentState = GameState.PayoutsCompleted;\n\n        // log that payouts were completed so that listening web3 clients\n        // can update their UI state\n        emit PayoutsCompleted(gameIterationCounter);\n    }\n    \n    /* FUNCTIONS (CALLS) \n     * \n     * These do not change the state of our system,\n     * and return immediately.\n     */\n\n    function getGameIteration() public view returns (uint8){\n        return gameIterationCounter;\n    }\n\n    function getCurrentState() public view returns (GameState) {\n        return currentState;\n    }\n\n    function getTeamNames() public view returns (bytes32[]) {\n        return teamNames;\n    }\n\n    function getTeamCount() public view returns (uint) {\n        return teamNames.length;\n    }\n    \n    function getTotalVoteCount() public view returns (uint) {\n        return totalNumVotes;\n    }\n    \n    function getTotalVoteBackingInWei() public view returns (uint) {\n        return totalVoteBacking;\n    }\n    \n    function getVoteCountForTeam(bytes32 _teamName) public view returns (uint) {\n        require(validTeamName(_teamName), \"invalid team name\");\n        \n        return teamVotes[_teamName].length;\n    } \n    \n    function getVoteBackingInWeiForTeam(bytes32 _teamName) public view returns (uint) {\n        require(validTeamName(_teamName), \"invalid team name\");\n        \n        return teamBackingInWei[_teamName];\n    }\n    \n    function validTeamName(bytes32 _teamName) public view returns (bool) {\n        for(uint i = 0; i < teamNames.length; i++) {\n            if (teamNames[i] == _teamName) {\n                return true;\n            }\n        }\n        return false;\n    }\n}",
  "sourcePath": "/Users/anshulbhagi/Development/worldcup-voting-dapp-react/contracts/GBWorldCupVotingGame.sol",
  "compiler": {
    "name": "solc",
    "version": "0.4.24+commit.e67f0147.Emscripten.clang"
  },
  "schemaVersion": "2.0.0",
  "updatedAt": "2018-07-12T19:49:59.676Z"
}