{
  "contractName": "GBWorldCupVotingGame",
  "abi": [
    {
      "constant": true,
      "inputs": [],
      "name": "gameReferee",
      "outputs": [
        {
          "name": "",
          "type": "address"
        }
      ],
      "payable": false,
      "stateMutability": "view",
      "type": "function"
    },
    {
      "constant": true,
      "inputs": [
        {
          "name": "",
          "type": "uint256"
        }
      ],
      "name": "teamNames",
      "outputs": [
        {
          "name": "",
          "type": "bytes32"
        }
      ],
      "payable": false,
      "stateMutability": "view",
      "type": "function"
    },
    {
      "inputs": [
        {
          "name": "_teamNames",
          "type": "bytes32[]"
        }
      ],
      "payable": false,
      "stateMutability": "nonpayable",
      "type": "constructor"
    },
    {
      "anonymous": false,
      "inputs": [
        {
          "indexed": true,
          "name": "gameIteration",
          "type": "uint256"
        },
        {
          "indexed": false,
          "name": "referee",
          "type": "address"
        }
      ],
      "name": "GameStarted",
      "type": "event"
    },
    {
      "anonymous": false,
      "inputs": [
        {
          "indexed": true,
          "name": "gameIteration",
          "type": "uint256"
        },
        {
          "indexed": false,
          "name": "voter",
          "type": "address"
        },
        {
          "indexed": false,
          "name": "teamName",
          "type": "bytes32"
        },
        {
          "indexed": false,
          "name": "backingInWei",
          "type": "uint256"
        }
      ],
      "name": "NewVote",
      "type": "event"
    },
    {
      "anonymous": false,
      "inputs": [
        {
          "indexed": true,
          "name": "gameIteration",
          "type": "uint256"
        },
        {
          "indexed": false,
          "name": "winningTeam",
          "type": "bytes32"
        }
      ],
      "name": "WinnerDeclared",
      "type": "event"
    },
    {
      "anonymous": false,
      "inputs": [
        {
          "indexed": true,
          "name": "gameIteration",
          "type": "uint256"
        }
      ],
      "name": "PayoutsCompleted",
      "type": "event"
    },
    {
      "constant": false,
      "inputs": [
        {
          "name": "_teamName",
          "type": "bytes32"
        }
      ],
      "name": "voteForTeam",
      "outputs": [],
      "payable": true,
      "stateMutability": "payable",
      "type": "function"
    },
    {
      "constant": false,
      "inputs": [
        {
          "name": "winningTeam",
          "type": "bytes32"
        }
      ],
      "name": "declareWinner",
      "outputs": [],
      "payable": false,
      "stateMutability": "nonpayable",
      "type": "function"
    },
    {
      "constant": true,
      "inputs": [],
      "name": "getTeamNames",
      "outputs": [
        {
          "name": "",
          "type": "bytes32[]"
        }
      ],
      "payable": false,
      "stateMutability": "view",
      "type": "function"
    },
    {
      "constant": true,
      "inputs": [],
      "name": "getTeamCount",
      "outputs": [
        {
          "name": "",
          "type": "uint256"
        }
      ],
      "payable": false,
      "stateMutability": "view",
      "type": "function"
    },
    {
      "constant": true,
      "inputs": [],
      "name": "getTotalVoteCount",
      "outputs": [
        {
          "name": "",
          "type": "uint256"
        }
      ],
      "payable": false,
      "stateMutability": "view",
      "type": "function"
    },
    {
      "constant": true,
      "inputs": [],
      "name": "getTotalVoteBackingInWei",
      "outputs": [
        {
          "name": "",
          "type": "uint256"
        }
      ],
      "payable": false,
      "stateMutability": "view",
      "type": "function"
    },
    {
      "constant": true,
      "inputs": [
        {
          "name": "_teamName",
          "type": "bytes32"
        }
      ],
      "name": "getVoteCountForTeam",
      "outputs": [
        {
          "name": "",
          "type": "uint256"
        }
      ],
      "payable": false,
      "stateMutability": "view",
      "type": "function"
    },
    {
      "constant": true,
      "inputs": [
        {
          "name": "_teamName",
          "type": "bytes32"
        }
      ],
      "name": "getVoteBackingInWeiForTeam",
      "outputs": [
        {
          "name": "",
          "type": "uint256"
        }
      ],
      "payable": false,
      "stateMutability": "view",
      "type": "function"
    },
    {
      "constant": true,
      "inputs": [
        {
          "name": "_teamName",
          "type": "bytes32"
        }
      ],
      "name": "validTeamName",
      "outputs": [
        {
          "name": "",
          "type": "bool"
        }
      ],
      "payable": false,
      "stateMutability": "view",
      "type": "function"
    }
  ],
  "bytecode": "0x608060405234801561001057600080fd5b506040516109f13803806109f183398101806040528101908080518201929190505050600060016006819055506000600460006101000a81548160ff0219169083600281111561005c57fe5b02179055508160059080519060200190610077929190610118565b5033600460016101000a81548173ffffffffffffffffffffffffffffffffffffffff021916908373ffffffffffffffffffffffffffffffffffffffff160217905550600090505b6005805490508110156101115760008060006005848154811015156100df57fe5b9060005260206000200154600019166000191681526020019081526020016000208190555080806001019150506100be565b5050610190565b82805482825590600052602060002090810192821561015a579160200282015b82811115610159578251829060001916905591602001919060010190610138565b5b509050610167919061016b565b5090565b61018d91905b80821115610189576000816000905550600101610171565b5090565b90565b6108528061019f6000396000f3006080604052600436106100af576000357c0100000000000000000000000000000000000000000000000000000000900463ffffffff1680630da3f373146100b45780631ebee98f146100df578063288c72e8146101365780633d695778146101615780635ae725f71461018557806392d79b76146101ce5780639905a9f7146101ff578063d635d3b51461022a578063db42fba114610296578063dd730d8d146102df578063f07d0a9e14610324575b600080fd5b3480156100c057600080fd5b506100c9610369565b6040518082815260200191505060405180910390f35b3480156100eb57600080fd5b506100f4610373565b604051808273ffffffffffffffffffffffffffffffffffffffff1673ffffffffffffffffffffffffffffffffffffffff16815260200191505060405180910390f35b34801561014257600080fd5b5061014b610399565b6040518082815260200191505060405180910390f35b61018360048036038101908080356000191690602001909291905050506103a3565b005b34801561019157600080fd5b506101b060048036038101908080359060200190929190505050610572565b60405180826000191660001916815260200191505060405180910390f35b3480156101da57600080fd5b506101fd6004803603810190808035600019169060200190929190505050610595565b005b34801561020b57600080fd5b50610214610618565b6040518082815260200191505060405180910390f35b34801561023657600080fd5b5061023f610625565b6040518080602001828103825283818151815260200191508051906020019060200280838360005b83811015610282578082015181840152602081019050610267565b505050509050019250505060405180910390f35b3480156102a257600080fd5b506102c56004803603810190808035600019169060200190929190505050610681565b604051808215151515815260200191505060405180910390f35b3480156102eb57600080fd5b5061030e60048036038101908080356000191690602001909291905050506106e0565b6040518082815260200191505060405180910390f35b34801561033057600080fd5b506103536004803603810190808035600019169060200190929190505050610785565b6040518082815260200191505060405180910390f35b6000600354905090565b600460019054906101000a900473ffffffffffffffffffffffffffffffffffffffff1681565b6000600254905090565b60008060008060028111156103b457fe5b600460009054906101000a900460ff1660028111156103cf57fe5b1415156103db57600080fd5b6103e484610681565b1515610458576040517f08c379a00000000000000000000000000000000000000000000000000000000081526004018080602001828103825260118152602001807f696e76616c6964207465616d206e616d6500000000000000000000000000000081525060200191505060405180910390fd5b3492503391508260008086600019166000191681526020019081526020016000206000828254019250508190555060016000856000191660001916815260200190815260200160002060408051908101604052808473ffffffffffffffffffffffffffffffffffffffff168152602001858152509080600181540180825580915050906001820390600052602060002090600202016000909192909190915060008201518160000160006101000a81548173ffffffffffffffffffffffffffffffffffffffff021916908373ffffffffffffffffffffffffffffffffffffffff1602179055506020820151816001015550505060016002600082825401925050819055508260036000828254019250508190555050505050565b60058181548110151561058157fe5b906000526020600020016000915090505481565b600460019054906101000a900473ffffffffffffffffffffffffffffffffffffffff1673ffffffffffffffffffffffffffffffffffffffff163373ffffffffffffffffffffffffffffffffffffffff161415156105f157600080fd5b6001600460006101000a81548160ff0219169083600281111561061057fe5b021790555050565b6000600580549050905090565b6060600580548060200260200160405190810160405280929190818152602001828054801561067757602002820191906000526020600020905b8154600019168152602001906001019080831161065f575b5050505050905090565b600080600090505b6005805490508110156106d55782600019166005828154811015156106aa57fe5b90600052602060002001546000191614156106c857600191506106da565b8080600101915050610689565b600091505b50919050565b60006106eb82610681565b151561075f576040517f08c379a00000000000000000000000000000000000000000000000000000000081526004018080602001828103825260118152602001807f696e76616c6964207465616d206e616d6500000000000000000000000000000081525060200191505060405180910390fd5b600160008360001916600019168152602001908152602001600020805490509050919050565b600061079082610681565b1515610804576040517f08c379a00000000000000000000000000000000000000000000000000000000081526004018080602001828103825260118152602001807f696e76616c6964207465616d206e616d6500000000000000000000000000000081525060200191505060405180910390fd5b60008083600019166000191681526020019081526020016000205490509190505600a165627a7a723058200603600f4dbe31569a09310f4d5f46f377ece868994dea1cbe088d502842b44f0029",
  "source": "pragma solidity ^0.4.2;\n// Specify compiler version we are using.\n// Note: this code is written using the latest solidity best practices,\n// for example using 'constructor(){}' rather than 'function GBWorldCupVotingGame(){}'\n// and using string return values for require() statements\n\ncontract GBWorldCupVotingGame {\n    \n    /* CONTRACT STATE VARIABLES */\n    \n    // State machine for this voting game,\n    // tracking which state of gameplay we are in.\n    enum GameState { \n        AcceptingVotes,\n        WinnerDeclared,\n        PayoutsCompleted\n    }\n    \n    // A vote object tracks the address of the account that voted\n    // and the Ether backing the account staked against the vote (denominated in wei)\n    struct Vote {\n        address voter;\n        uint voteBackingInWei;\n    }\n    \n    // keep track of total Ether backing for each team (denominated in wei)\n    mapping (bytes32 => uint) teamBackingInWei;\n    \n    // keep track of Votes for each team, so that payouts can be computed in the future\n    mapping (bytes32 => Vote[]) teamVotes;\n    \n    uint totalNumVotes;\n    uint totalVoteBacking;\n    \n    // We include the 'private' here just for educational purposes.\n    // The use of 'private' does not hide the value of the variable.\n    // Contract data storage (on EtherScan, e.g.) would still reveal value of 'currentState'.\n    // It simply prevents solidity from making an automatic getter function for it\n    GameState private currentState; \n    \n    // The ONLY address that is allowed to declare game outcome\n    // and restart game\n    address public gameReferee;\n    \n    // Solidity doesn't let you pass in an array of strings in the constructor (yet).\n    // We will use an array of bytes32 instead to store the list of teams\n    // available for voting.\n    bytes32[] public teamNames;\n  \n    uint gameIterationCounter;\n    \n    /* CUSTOM FUNCTION MODIFIERS */\n    \n    modifier forRefereeOnly() {\n        require(msg.sender == gameReferee);\n        _;\n    }\n    \n    modifier inState(GameState _state) {\n        require(currentState == _state);\n        _;\n    }\n    \n    /* EVENTS */\n    event GameStarted(uint indexed gameIteration, address referee);\n    event NewVote(uint indexed gameIteration, address voter, bytes32 teamName, uint backingInWei);\n    event WinnerDeclared(uint indexed gameIteration, bytes32 winningTeam);\n    event PayoutsCompleted(uint indexed gameIteration);\n    \n    /* CONSTRUCTOR */\n    constructor(bytes32[] _teamNames) public {\n        \n        // This is the FIRST time the game is being played.\n        // subsequent iterations of the game will not require constructor to be called\n        gameIterationCounter = 1;\n        \n        // start out in the \"accepting votes\" state\n        currentState = GameState.AcceptingVotes;\n        \n        // store a reference to this list of team names\n        // we'll be using it elsewhere in the contract\n        teamNames = _teamNames;\n        \n        // assign the role of referee to the creator of this contract\n        gameReferee = msg.sender;\n        \n        // go through each team name\n        for (uint i = 0; i < teamNames.length; i++) {\n            \n            // and initialize backing for all teams to zero.\n            // we'll increment this later as votes come in\n            teamBackingInWei[teamNames[i]] = 0;\n        }\n        \n    }\n    \n    /* FUNCTIONS (TRANSACTIONS) \n     * \n     * These change the state of our system,\n     * and take time to return.\n     */\n    \n    function voteForTeam(bytes32 _teamName) public payable inState(GameState.AcceptingVotes) {\n        \n        require(validTeamName(_teamName), \"invalid team name\");\n        \n        uint _voteBackingInWei = msg.value;\n        address _voter = msg.sender;\n        \n        teamBackingInWei[_teamName] += _voteBackingInWei;\n        teamVotes[_teamName].push(Vote({\n            voter: _voter,\n            voteBackingInWei: _voteBackingInWei\n        }));\n        \n        totalNumVotes += 1;\n        totalVoteBacking += _voteBackingInWei;\n        \n    }\n    \n    function declareWinner(bytes32 winningTeam) public forRefereeOnly() {\n        //update state \n        currentState = GameState.WinnerDeclared;\n        \n        //call doPayouts\n    }\n    \n    // \"private\" means this function is only visible to this contract.\n    // can only be called from within this contract\n    function doPayouts() private inState(GameState.WinnerDeclared) {\n        \n    }\n    \n    /* FUNCTIONS (CALLS) \n     * \n     * These do not change the state of our system,\n     * and return immediately.\n     */\n\n    function getTeamNames() public view returns (bytes32[]) {\n        return teamNames;\n    }\n\n    function getTeamCount() public view returns (uint) {\n        return teamNames.length;\n    }\n    \n    function getTotalVoteCount() public view returns (uint) {\n        return totalNumVotes;\n    }\n    \n    function getTotalVoteBackingInWei() public view returns (uint) {\n        return totalVoteBacking;\n    }\n    \n    function getVoteCountForTeam(bytes32 _teamName) public view returns (uint) {\n        require(validTeamName(_teamName), \"invalid team name\");\n        \n        return teamVotes[_teamName].length;\n    } \n    \n    function getVoteBackingInWeiForTeam(bytes32 _teamName) public view returns (uint) {\n        require(validTeamName(_teamName), \"invalid team name\");\n        \n        return teamBackingInWei[_teamName];\n    }\n    \n    function validTeamName(bytes32 _teamName) public view returns (bool) {\n        for(uint i = 0; i < teamNames.length; i++) {\n            if (teamNames[i] == _teamName) {\n                return true;\n            }\n        }\n        return false;\n    }\n}",
  "sourcePath": "/Users/anshulbhagi/Development/worldcup-voting-dapp-react/contracts/GBWorldCupVotingGame.sol",
  "compiler": {
    "name": "solc",
    "version": "0.4.24+commit.e67f0147.Emscripten.clang"
  },
  "schemaVersion": "2.0.0",
  "updatedAt": "2018-07-11T19:25:13.377Z"
}