{
  "contractName": "GBWorldCupVotingGame",
  "abi": [
    {
      "constant": true,
      "inputs": [],
      "name": "gameReferee",
      "outputs": [
        {
          "name": "",
          "type": "address"
        }
      ],
      "payable": false,
      "stateMutability": "view",
      "type": "function"
    },
    {
      "constant": true,
      "inputs": [
        {
          "name": "",
          "type": "uint256"
        }
      ],
      "name": "teamNames",
      "outputs": [
        {
          "name": "",
          "type": "bytes32"
        }
      ],
      "payable": false,
      "stateMutability": "view",
      "type": "function"
    },
    {
      "constant": true,
      "inputs": [],
      "name": "lastWinningTeam",
      "outputs": [
        {
          "name": "",
          "type": "bytes32"
        }
      ],
      "payable": false,
      "stateMutability": "view",
      "type": "function"
    },
    {
      "inputs": [
        {
          "name": "_teamNames",
          "type": "bytes32[]"
        }
      ],
      "payable": false,
      "stateMutability": "nonpayable",
      "type": "constructor"
    },
    {
      "anonymous": false,
      "inputs": [
        {
          "indexed": false,
          "name": "gameIteration",
          "type": "uint8"
        },
        {
          "indexed": false,
          "name": "referee",
          "type": "address"
        }
      ],
      "name": "GameStarted",
      "type": "event"
    },
    {
      "anonymous": false,
      "inputs": [
        {
          "indexed": false,
          "name": "gameIteration",
          "type": "uint8"
        },
        {
          "indexed": false,
          "name": "winningTeam",
          "type": "bytes32"
        }
      ],
      "name": "WinningTeamDeclared",
      "type": "event"
    },
    {
      "anonymous": false,
      "inputs": [
        {
          "indexed": false,
          "name": "gameIteration",
          "type": "uint8"
        },
        {
          "indexed": true,
          "name": "winnerAddress",
          "type": "address"
        },
        {
          "indexed": false,
          "name": "amountWon",
          "type": "uint256"
        }
      ],
      "name": "YouAreAWinner",
      "type": "event"
    },
    {
      "anonymous": false,
      "inputs": [
        {
          "indexed": false,
          "name": "gameIteration",
          "type": "uint8"
        },
        {
          "indexed": false,
          "name": "numWinners",
          "type": "uint16"
        },
        {
          "indexed": false,
          "name": "totalWeiDistributed",
          "type": "uint256"
        }
      ],
      "name": "PayoutsCompleted",
      "type": "event"
    },
    {
      "anonymous": false,
      "inputs": [
        {
          "indexed": false,
          "name": "gameIteration",
          "type": "uint8"
        },
        {
          "indexed": true,
          "name": "voter",
          "type": "address"
        },
        {
          "indexed": false,
          "name": "teamName",
          "type": "bytes32"
        },
        {
          "indexed": false,
          "name": "voteBacking",
          "type": "uint256"
        }
      ],
      "name": "NewVote",
      "type": "event"
    },
    {
      "anonymous": false,
      "inputs": [
        {
          "indexed": false,
          "name": "gameIteration",
          "type": "uint8"
        },
        {
          "indexed": false,
          "name": "teamName",
          "type": "bytes32"
        },
        {
          "indexed": false,
          "name": "votesForThisTeam",
          "type": "uint16"
        },
        {
          "indexed": false,
          "name": "backingForThisTeam",
          "type": "uint256"
        }
      ],
      "name": "TeamStateUpdate",
      "type": "event"
    },
    {
      "anonymous": false,
      "inputs": [
        {
          "indexed": false,
          "name": "gameIteration",
          "type": "uint8"
        },
        {
          "indexed": false,
          "name": "totalVotesInGame",
          "type": "uint16"
        },
        {
          "indexed": false,
          "name": "totalBackingInGame",
          "type": "uint256"
        }
      ],
      "name": "GameStateUpdate",
      "type": "event"
    },
    {
      "constant": false,
      "inputs": [
        {
          "name": "_teamName",
          "type": "bytes32"
        }
      ],
      "name": "voteForTeam",
      "outputs": [],
      "payable": true,
      "stateMutability": "payable",
      "type": "function"
    },
    {
      "constant": false,
      "inputs": [],
      "name": "restartGame",
      "outputs": [],
      "payable": false,
      "stateMutability": "nonpayable",
      "type": "function"
    },
    {
      "constant": false,
      "inputs": [
        {
          "name": "winningTeam",
          "type": "bytes32"
        }
      ],
      "name": "declareWinner",
      "outputs": [],
      "payable": false,
      "stateMutability": "nonpayable",
      "type": "function"
    },
    {
      "constant": true,
      "inputs": [],
      "name": "getGameIteration",
      "outputs": [
        {
          "name": "",
          "type": "uint8"
        }
      ],
      "payable": false,
      "stateMutability": "view",
      "type": "function"
    },
    {
      "constant": true,
      "inputs": [],
      "name": "getCurrentState",
      "outputs": [
        {
          "name": "",
          "type": "uint8"
        }
      ],
      "payable": false,
      "stateMutability": "view",
      "type": "function"
    },
    {
      "constant": true,
      "inputs": [],
      "name": "getRefereeAddress",
      "outputs": [
        {
          "name": "",
          "type": "address"
        }
      ],
      "payable": false,
      "stateMutability": "view",
      "type": "function"
    },
    {
      "constant": true,
      "inputs": [],
      "name": "getTeamNames",
      "outputs": [
        {
          "name": "",
          "type": "bytes32[]"
        }
      ],
      "payable": false,
      "stateMutability": "view",
      "type": "function"
    },
    {
      "constant": true,
      "inputs": [],
      "name": "getTeamCount",
      "outputs": [
        {
          "name": "",
          "type": "uint256"
        }
      ],
      "payable": false,
      "stateMutability": "view",
      "type": "function"
    },
    {
      "constant": true,
      "inputs": [],
      "name": "getTotalVoteCount",
      "outputs": [
        {
          "name": "",
          "type": "uint16"
        }
      ],
      "payable": false,
      "stateMutability": "view",
      "type": "function"
    },
    {
      "constant": true,
      "inputs": [],
      "name": "getTotalVoteBackingInWei",
      "outputs": [
        {
          "name": "",
          "type": "uint256"
        }
      ],
      "payable": false,
      "stateMutability": "view",
      "type": "function"
    },
    {
      "constant": true,
      "inputs": [
        {
          "name": "_teamName",
          "type": "bytes32"
        }
      ],
      "name": "getVoteCountForTeam",
      "outputs": [
        {
          "name": "",
          "type": "uint16"
        }
      ],
      "payable": false,
      "stateMutability": "view",
      "type": "function"
    },
    {
      "constant": true,
      "inputs": [
        {
          "name": "_teamName",
          "type": "bytes32"
        }
      ],
      "name": "getVoteBackingInWeiForTeam",
      "outputs": [
        {
          "name": "",
          "type": "uint256"
        }
      ],
      "payable": false,
      "stateMutability": "view",
      "type": "function"
    },
    {
      "constant": true,
      "inputs": [],
      "name": "getContractBalance",
      "outputs": [
        {
          "name": "",
          "type": "uint256"
        }
      ],
      "payable": false,
      "stateMutability": "view",
      "type": "function"
    },
    {
      "constant": true,
      "inputs": [],
      "name": "getLastWinner",
      "outputs": [
        {
          "name": "",
          "type": "bytes32"
        }
      ],
      "payable": false,
      "stateMutability": "view",
      "type": "function"
    },
    {
      "constant": true,
      "inputs": [
        {
          "name": "_teamName",
          "type": "bytes32"
        }
      ],
      "name": "validTeamName",
      "outputs": [
        {
          "name": "",
          "type": "bool"
        }
      ],
      "payable": false,
      "stateMutability": "view",
      "type": "function"
    }
  ],
  "bytecode": "0x60806040523480156200001157600080fd5b506040516200157f3803806200157f8339810180604052810190808051820192919050505060006001600760006101000a81548160ff021916908360ff1602179055506000600460006101000a81548160ff021916908360028111156200007457fe5b0217905550816005908051906020019062000091929190620001d8565b5033600460016101000a81548173ffffffffffffffffffffffffffffffffffffffff021916908373ffffffffffffffffffffffffffffffffffffffff160217905550600090505b6005805490508110156200012e576000806000600584815481101515620000fb57fe5b906000526020600020015460001916600019168152602001908152602001600020819055508080600101915050620000d8565b7f37c10cb268d4af60e5a713b73b1d4ba2f0609aebef191e58a252f4acb8c7cec4600760009054906101000a900460ff16600460019054906101000a900473ffffffffffffffffffffffffffffffffffffffff16604051808360ff1660ff1681526020018273ffffffffffffffffffffffffffffffffffffffff1673ffffffffffffffffffffffffffffffffffffffff1681526020019250505060405180910390a1505062000258565b8280548282559060005260206000209081019282156200021d579160200282015b828111156200021c578251829060001916905591602001919060010190620001f9565b5b5090506200022c919062000230565b5090565b6200025591905b808211156200025157600081600090555060010162000237565b5090565b90565b61131780620002686000396000f3006080604052600436106100fc576000357c0100000000000000000000000000000000000000000000000000000000900463ffffffff1680630da3f373146101015780631ebee98f1461012c578063288c72e8146101835780632b628e89146101b6578063378aa701146101e75780633d695778146102205780635ae725f7146102445780636f9fb98a1461028d5780638ba35dc0146102b85780638d25af041461030f57806392d79b76146103265780639905a9f714610357578063d635d3b514610382578063db42fba1146103ee578063dd730d8d14610437578063dd92331314610484578063f07d0a9e146104b7578063f88649a1146104fc575b600080fd5b34801561010d57600080fd5b5061011661052f565b6040518082815260200191505060405180910390f35b34801561013857600080fd5b50610141610539565b604051808273ffffffffffffffffffffffffffffffffffffffff1673ffffffffffffffffffffffffffffffffffffffff16815260200191505060405180910390f35b34801561018f57600080fd5b5061019861055f565b604051808261ffff1661ffff16815260200191505060405180910390f35b3480156101c257600080fd5b506101cb610577565b604051808260ff1660ff16815260200191505060405180910390f35b3480156101f357600080fd5b506101fc61058e565b6040518082600281111561020c57fe5b60ff16815260200191505060405180910390f35b61024260048036038101908080356000191690602001909291905050506105a5565b005b34801561025057600080fd5b5061026f60048036038101908080359060200190929190505050610930565b60405180826000191660001916815260200191505060405180910390f35b34801561029957600080fd5b506102a2610953565b6040518082815260200191505060405180910390f35b3480156102c457600080fd5b506102cd610972565b604051808273ffffffffffffffffffffffffffffffffffffffff1673ffffffffffffffffffffffffffffffffffffffff16815260200191505060405180910390f35b34801561031b57600080fd5b5061032461099c565b005b34801561033257600080fd5b506103556004803603810190808035600019169060200190929190505050610c20565b005b34801561036357600080fd5b5061036c610dec565b6040518082815260200191505060405180910390f35b34801561038e57600080fd5b50610397610df9565b6040518080602001828103825283818151815260200191508051906020019060200280838360005b838110156103da5780820151818401526020810190506103bf565b505050509050019250505060405180910390f35b3480156103fa57600080fd5b5061041d6004803603810190808035600019169060200190929190505050610e55565b604051808215151515815260200191505060405180910390f35b34801561044357600080fd5b506104666004803603810190808035600019169060200190929190505050610eb4565b604051808261ffff1661ffff16815260200191505060405180910390f35b34801561049057600080fd5b50610499610f59565b60405180826000191660001916815260200191505060405180910390f35b3480156104c357600080fd5b506104e66004803603810190808035600019169060200190929190505050610f5f565b6040518082815260200191505060405180910390f35b34801561050857600080fd5b50610511611000565b60405180826000191660001916815260200191505060405180910390f35b6000600354905090565b600460019054906101000a900473ffffffffffffffffffffffffffffffffffffffff1681565b6000600260009054906101000a900461ffff16905090565b6000600760009054906101000a900460ff16905090565b6000600460009054906101000a900460ff16905090565b60008060008060028111156105b657fe5b600460009054906101000a900460ff1660028111156105d157fe5b1415156105dd57600080fd5b6105e684610e55565b151561065a576040517f08c379a00000000000000000000000000000000000000000000000000000000081526004018080602001828103825260118152602001807f696e76616c6964207465616d206e616d6500000000000000000000000000000081525060200191505060405180910390fd5b3492503391508260008086600019166000191681526020019081526020016000206000828254019250508190555060016000856000191660001916815260200190815260200160002060408051908101604052808473ffffffffffffffffffffffffffffffffffffffff168152602001858152509080600181540180825580915050906001820390600052602060002090600202016000909192909190915060008201518160000160006101000a81548173ffffffffffffffffffffffffffffffffffffffff021916908373ffffffffffffffffffffffffffffffffffffffff160217905550602082015181600101555050506001600260008282829054906101000a900461ffff160192506101000a81548161ffff021916908361ffff160217905550826003600082825401925050819055508173ffffffffffffffffffffffffffffffffffffffff167f2e30b455dc90e47ce2b1ca160a06fca6e06794e8cab2f169c0eb8f743663721b600760009054906101000a900460ff168686604051808460ff1660ff1681526020018360001916600019168152602001828152602001935050505060405180910390a27f5e652fa7933389c46403954dcd3772cb114e8d150347c8a622876e58b2608c4e600760009054906101000a900460ff168560016000886000191660001916815260200190815260200160002080549050600080896000191660001916815260200190815260200160002054604051808560ff1660ff16815260200184600019166000191681526020018361ffff1661ffff16815260200182815260200194505050505060405180910390a17ed41a00a7b6dd2fb016d5cc8a055cf9670c76b943d82fb5ea2e6fc62440badc600760009054906101000a900460ff16600260009054906101000a900461ffff16600354604051808460ff1660ff1681526020018361ffff1661ffff168152602001828152602001935050505060405180910390a150505050565b60058181548110151561093f57fe5b906000526020600020016000915090505481565b60003073ffffffffffffffffffffffffffffffffffffffff1631905090565b6000600460019054906101000a900473ffffffffffffffffffffffffffffffffffffffff16905090565b6000600460019054906101000a900473ffffffffffffffffffffffffffffffffffffffff1673ffffffffffffffffffffffffffffffffffffffff163373ffffffffffffffffffffffffffffffffffffffff161415156109fa57600080fd5b6002806002811115610a0857fe5b600460009054906101000a900460ff166002811115610a2357fe5b141515610a2f57600080fd5b60ff600760009054906101000a900460ff1660ff161415610a6b576000600760006101000a81548160ff021916908360ff160217905550610a9a565b6001600760008282829054906101000a900460ff160192506101000a81548160ff021916908360ff1602179055505b6000600260006101000a81548161ffff021916908361ffff1602179055506000600381905550600091505b600580549050821015610b5657600080600584815481101515610ae457fe5b9060005260206000200154600019166000191681526020019081526020016000206000905560016000600584815481101515610b1c57fe5b9060005260206000200154600019166000191681526020019081526020016000206000610b499190611279565b8180600101925050610ac5565b6000600460006101000a81548160ff02191690836002811115610b7557fe5b02179055507f37c10cb268d4af60e5a713b73b1d4ba2f0609aebef191e58a252f4acb8c7cec4600760009054906101000a900460ff16600460019054906101000a900473ffffffffffffffffffffffffffffffffffffffff16604051808360ff1660ff1681526020018273ffffffffffffffffffffffffffffffffffffffff1673ffffffffffffffffffffffffffffffffffffffff1681526020019250505060405180910390a15050565b600460019054906101000a900473ffffffffffffffffffffffffffffffffffffffff1673ffffffffffffffffffffffffffffffffffffffff163373ffffffffffffffffffffffffffffffffffffffff16141515610c7c57600080fd5b6000806002811115610c8a57fe5b600460009054906101000a900460ff166002811115610ca557fe5b141515610cb157600080fd5b610cba82610e55565b1515610d54576040517f08c379a00000000000000000000000000000000000000000000000000000000081526004018080602001828103825260238152602001807f6e6f6e6578697374656e74207465616d2073656c65637465642061732077696e81526020017f6e6572000000000000000000000000000000000000000000000000000000000081525060400191505060405180910390fd5b6001600460006101000a81548160ff02191690836002811115610d7357fe5b021790555081600681600019169055507fb54fe4f5efebf674f78cc28f581700a8c3f68c59dfa8458b9062d7eb89a04411600760009054906101000a900460ff1683604051808360ff1660ff16815260200182600019166000191681526020019250505060405180910390a1610de88261100a565b5050565b6000600580549050905090565b60606005805480602002602001604051908101604052809291908181526020018280548015610e4b57602002820191906000526020600020905b81546000191681526020019060010190808311610e33575b5050505050905090565b600080600090505b600580549050811015610ea9578260001916600582815481101515610e7e57fe5b9060005260206000200154600019161415610e9c5760019150610eae565b8080600101915050610e5d565b600091505b50919050565b6000610ebf82610e55565b1515610f33576040517f08c379a00000000000000000000000000000000000000000000000000000000081526004018080602001828103825260118152602001807f696e76616c6964207465616d206e616d6500000000000000000000000000000081525060200191505060405180910390fd5b600160008360001916600019168152602001908152602001600020805490509050919050565b60065481565b6000610f6a82610e55565b1515610fde576040517f08c379a00000000000000000000000000000000000000000000000000000000081526004018080602001828103825260118152602001807f696e76616c6964207465616d206e616d6500000000000000000000000000000081525060200191505060405180910390fd5b6000808360001916600019168152602001908152602001600020549050919050565b6000600654905090565b6000806000806000806000600180600281111561102357fe5b600460009054906101000a900460ff16600281111561103e57fe5b14151561104a57600080fd5b3073ffffffffffffffffffffffffffffffffffffffff16319750600160008a6000191660001916815260200190815260200160002096506000808a60001916600019168152602001908152602001600020549550600094505b86805490508510156111e25786858154811015156110bd57fe5b906000526020600020906002020160000160009054906101000a900473ffffffffffffffffffffffffffffffffffffffff16935086858154811015156110ff57fe5b90600052602060002090600202016001015492508588840281151561112057fe5b0491508373ffffffffffffffffffffffffffffffffffffffff166108fc839081150290604051600060405180830381858888f19350505050158015611169573d6000803e3d6000fd5b508373ffffffffffffffffffffffffffffffffffffffff167fb5f620bb4142124ecefbd36b0617edf76449ee3d4d746826a2bd40887d014cf6600760009054906101000a900460ff1684604051808360ff1660ff1681526020018281526020019250505060405180910390a284806001019550506110a3565b6002600460006101000a81548160ff0219169083600281111561120157fe5b02179055507f17ef9b1eb94e0f8704567b100dd660582acd6a75af0dfe8c92c1f744169e605b600760009054906101000a900460ff1688805490508a604051808460ff1660ff1681526020018361ffff1661ffff168152602001828152602001935050505060405180910390a1505050505050505050565b508054600082556002029060005260206000209081019061129a919061129d565b50565b6112e891905b808211156112e457600080820160006101000a81549073ffffffffffffffffffffffffffffffffffffffff02191690556001820160009055506002016112a3565b5090565b905600a165627a7a72305820d3e99d4240a31ff3b52b5dc127e1035d83b673d0d0d5b0d638f77f485609cc020029",
  "source": "pragma solidity ^0.4.2;\n// Specify compiler version we are using.\n// Note: this code is written using the latest solidity best practices,\n// for example using 'constructor(){}' rather than 'function GBWorldCupVotingGame(){}'\n// and using string return values for require() statements\n\ncontract GBWorldCupVotingGame {\n    \n    /* CONTRACT STATE VARIABLES */\n    \n    // State machine for this voting game,\n    // tracking which state of gameplay we are in.\n    enum GameState { \n        AcceptingVotes,\n        WinnerDeclared,\n        PayoutsCompleted\n    }\n    \n    // A vote object tracks the address of the account that voted\n    // and the Ether backing the account staked against the vote (denominated in wei)\n    struct Vote {\n        address voter;\n        uint voteBackingInWei;\n    }\n    \n    // keep track of total Ether backing for each team (denominated in wei)\n    mapping (bytes32 => uint) teamBackingInWei;\n    \n    // keep track of Votes for each team, so that payouts can be computed in the future\n    mapping (bytes32 => Vote[]) teamVotes;\n    \n    uint16 totalNumVotes;\n    uint totalVoteBacking;\n    \n    // We include the 'private' here just for educational purposes.\n    // The use of 'private' does not hide the value of the variable.\n    // Contract data storage (on EtherScan, e.g.) would still reveal value of 'currentState'.\n    // It simply prevents solidity from making an automatic getter function for it\n    GameState private currentState; \n    GameState private constant INITIAL_STATE = GameState.AcceptingVotes;\n    \n    // The ONLY address that is allowed to declare game outcome\n    // and restart game\n    address public gameReferee;\n    \n    // Solidity doesn't let you pass in an array of strings in the constructor (yet).\n    // We will use an array of bytes32 instead to store the list of teams\n    // available for voting.\n    bytes32[] public teamNames;\n\n    // stores name of team that won the last round of the game, if any\n    bytes32 public lastWinningTeam;\n  \n    // max value = 255\n    uint8 private gameIterationCounter;\n    \n    /* CUSTOM FUNCTION MODIFIERS */\n    \n    modifier forRefereeOnly() {\n        require(msg.sender == gameReferee);\n        _;\n    }\n    \n    modifier inState(GameState _state) {\n        require(currentState == _state);\n        _;\n    }\n    \n    /* EVENTS */\n    event GameStarted(uint8 gameIteration, address referee);\n    event WinningTeamDeclared(uint8 gameIteration, bytes32 winningTeam);\n    event YouAreAWinner(uint8 gameIteration, address indexed winnerAddress, uint amountWon);\n    event PayoutsCompleted(uint8 gameIteration, uint16 numWinners, uint totalWeiDistributed);\n    event NewVote(uint8 gameIteration, address indexed voter, bytes32 teamName, uint voteBacking);\n    \n    event TeamStateUpdate(uint8 gameIteration, bytes32 teamName, uint16 votesForThisTeam, uint backingForThisTeam);\n    event GameStateUpdate(uint8 gameIteration, uint16 totalVotesInGame, uint totalBackingInGame);\n    \n    /* CONSTRUCTOR */\n    constructor(bytes32[] _teamNames) public {\n        \n        // This is the FIRST time the game is being played.\n        // subsequent iterations of the game will not require constructor to be called\n        gameIterationCounter = 1;\n        \n        // start out in the \"accepting votes\" state\n        currentState = INITIAL_STATE;\n        \n        // store a reference to this list of team names\n        // we'll be using it elsewhere in the contract\n        teamNames = _teamNames;\n        \n        // assign the role of referee to the creator of this contract\n        gameReferee = msg.sender;\n        \n        // go through each team name\n        for (uint i = 0; i < teamNames.length; i++) {\n            \n            // and initialize backing for all teams to zero.\n            // we'll increment this later as votes come in\n            teamBackingInWei[teamNames[i]] = 0;\n        }\n        \n        emit GameStarted(gameIterationCounter, gameReferee);\n    }\n    \n    /* FUNCTIONS (TRANSACTIONS) \n     * \n     * These change the state of our system,\n     * and take time to return.\n     */\n    \n    function voteForTeam(bytes32 _teamName) public payable inState(GameState.AcceptingVotes) {\n        \n        require(validTeamName(_teamName), \"invalid team name\");\n        \n        uint _voteBackingInWei = msg.value;\n        address _voter = msg.sender;\n        \n        teamBackingInWei[_teamName] += _voteBackingInWei;\n        teamVotes[_teamName].push(Vote({\n            voter: _voter,\n            voteBackingInWei: _voteBackingInWei\n        }));\n        \n        totalNumVotes += 1;\n        totalVoteBacking += _voteBackingInWei;\n    \n        emit NewVote(gameIterationCounter, _voter, _teamName, _voteBackingInWei);\n        emit TeamStateUpdate(gameIterationCounter, _teamName, uint16(teamVotes[_teamName].length), teamBackingInWei[_teamName]);\n        emit GameStateUpdate(gameIterationCounter, totalNumVotes, totalVoteBacking);\n\n    }\n    \n    // can only restart game once payouts are completed\n    function restartGame() public forRefereeOnly() inState(GameState.PayoutsCompleted) {\n        \n        // pro-actively handle overflow\n        if (gameIterationCounter == 255)\n            gameIterationCounter = 0;\n        else\n            gameIterationCounter += 1;\n\n        totalNumVotes = 0;\n        totalVoteBacking = 0;\n\n        // this should recover some gas\n        for(uint i = 0; i < teamNames.length; i++) {\n            delete teamBackingInWei[teamNames[i]];\n            delete teamVotes[teamNames[i]];\n        }\n\n        // reset state\n        currentState = GameState.AcceptingVotes;\n\n        emit GameStarted(gameIterationCounter, gameReferee);\n    }\n\n    function declareWinner(bytes32 winningTeam) public forRefereeOnly() inState(GameState.AcceptingVotes) {\n\n        require(validTeamName(winningTeam), \"nonexistent team selected as winner\");\n\n        //update contract state\n        currentState = GameState.WinnerDeclared;\n        lastWinningTeam = winningTeam;\n\n        //log event\n        emit WinningTeamDeclared(gameIterationCounter, winningTeam);\n\n        //call internal function to pay out winners\n        _doPayouts(winningTeam);\n    }\n    \n    // \"private\" means this function is only visible to this contract.\n    // can only be called from within this contract\n    function _doPayouts(bytes32 winningTeam) private inState(GameState.WinnerDeclared) {\n        \n        // money to be split\n        uint totalWeiToBeSplit = address(this).balance;\n\n        // identify winning Votes.\n        // note: arrays and structs are stored in 'storage' \n        // rather than memory eventhough they're local vars\n        Vote[] storage winningVotes = teamVotes[winningTeam];\n\n        // PAYOUT ALGORITHM:\n        //\n        // Voters who voted for the winning team split the pool of ether\n        // staked by all voters (including losers).\n        //\n        // The fraction of the overall pool that each correct voter receives\n        // is equal to:\n        //\n        // Voter's individual backing for the winning team / total backing for the winning team\n\n        // identify total Wei backing for this winning team\n        uint totalBackingForWinningTeam = teamBackingInWei[winningTeam];\n\n        // identify each voter's payout as a fraction of overall backing pool\n        for(uint i = 0; i < winningVotes.length; i++) {\n            \n            // WHO\n            address winningVoter = winningVotes[i].voter;\n            \n            // HOW MUCH HE OR SHE PUT IN\n            uint winningVotersBacking = winningVotes[i].voteBackingInWei;\n\n            // PAYOUT = WINNING FRACTION * TOTAL TO BE SPLIT\n            // \n            // NOTE: the 'fixed' datatype (a.k.a float or double in other languages) is \n            // not yet fully supported in solidity so rather than\n            // separately calculating winning fraction and then multiplying\n            // total by fraction, we re-order the math to avoid truncation. \n            //\n            // 'amountWon' will still be truncated to an integer value but because it's denominated\n            // in Wei, the trunctation error is miniscule as a fraction of the voter's backing\n            uint amountWon = winningVotersBacking * totalWeiToBeSplit / totalBackingForWinningTeam;\n\n            // send the money\n            winningVoter.transfer(amountWon);\n\n            // log that we sent the money to this winner\n            emit YouAreAWinner(gameIterationCounter, winningVoter, amountWon);\n        }\n\n        //finally, update state \n        currentState = GameState.PayoutsCompleted;\n\n        // log that payouts were completed so that listening web3 clients\n        // can update their UI state\n        emit PayoutsCompleted(gameIterationCounter, uint16(winningVotes.length), totalWeiToBeSplit);\n    }\n    \n    /* FUNCTIONS (CALLS) \n     * \n     * These do not change the state of our system,\n     * and return immediately.\n     */\n\n    function getGameIteration() public view returns (uint8){\n        return gameIterationCounter;\n    }\n\n    function getCurrentState() public view returns (GameState) {\n        return currentState;\n    }\n\n    function getRefereeAddress() public view returns (address) {\n        return gameReferee;\n    }\n\n    function getTeamNames() public view returns (bytes32[]) {\n        return teamNames;\n    }\n\n    function getTeamCount() public view returns (uint) {\n        return teamNames.length;\n    }\n    \n    function getTotalVoteCount() public view returns (uint16) {\n        return totalNumVotes;\n    }\n    \n    function getTotalVoteBackingInWei() public view returns (uint) {\n        return totalVoteBacking;\n    }\n    \n    function getVoteCountForTeam(bytes32 _teamName) public view returns (uint16) {\n        require(validTeamName(_teamName), \"invalid team name\");\n        \n        return uint16(teamVotes[_teamName].length);\n    } \n    \n    function getVoteBackingInWeiForTeam(bytes32 _teamName) public view returns (uint) {\n        require(validTeamName(_teamName), \"invalid team name\");\n        \n        return teamBackingInWei[_teamName];\n    }\n\n    // this should return the same value as getTotalVoteBackingInWei().\n    // we create it for testing purposes\n    // and use in our truffle scripts for educational purposes\n    function getContractBalance() public view returns (uint) {\n        return address(this).balance;\n    }\n\n    function getLastWinner() public view returns (bytes32) {\n        return lastWinningTeam;\n    }\n    \n    function validTeamName(bytes32 _teamName) public view returns (bool) {\n        for(uint i = 0; i < teamNames.length; i++) {\n            if (teamNames[i] == _teamName) {\n                return true;\n            }\n        }\n        return false;\n    }\n}",
  "sourcePath": "/Users/anshulbhagi/Development/worldcup-voting-dapp-react/contracts/GBWorldCupVotingGame.sol",
  "compiler": {
    "name": "solc",
    "version": "0.4.24+commit.e67f0147.Emscripten.clang"
  },
  "schemaVersion": "2.0.0",
  "updatedAt": "2018-07-18T06:38:36.819Z"
}