{
  "contractName": "GBWorldCupVotingGame",
  "abi": [
    {
      "constant": true,
      "inputs": [],
      "name": "gameReferee",
      "outputs": [
        {
          "name": "",
          "type": "address"
        }
      ],
      "payable": false,
      "stateMutability": "view",
      "type": "function"
    },
    {
      "constant": true,
      "inputs": [
        {
          "name": "",
          "type": "uint256"
        }
      ],
      "name": "teamNames",
      "outputs": [
        {
          "name": "",
          "type": "bytes32"
        }
      ],
      "payable": false,
      "stateMutability": "view",
      "type": "function"
    },
    {
      "inputs": [
        {
          "name": "_teamNames",
          "type": "bytes32[]"
        }
      ],
      "payable": false,
      "stateMutability": "nonpayable",
      "type": "constructor"
    },
    {
      "anonymous": false,
      "inputs": [
        {
          "indexed": true,
          "name": "gameIteration",
          "type": "uint256"
        },
        {
          "indexed": false,
          "name": "referee",
          "type": "address"
        }
      ],
      "name": "GameStarted",
      "type": "event"
    },
    {
      "anonymous": false,
      "inputs": [
        {
          "indexed": true,
          "name": "gameIteration",
          "type": "uint256"
        },
        {
          "indexed": false,
          "name": "voter",
          "type": "address"
        },
        {
          "indexed": false,
          "name": "teamName",
          "type": "bytes32"
        },
        {
          "indexed": false,
          "name": "backingInWei",
          "type": "uint256"
        }
      ],
      "name": "NewVote",
      "type": "event"
    },
    {
      "anonymous": false,
      "inputs": [
        {
          "indexed": true,
          "name": "gameIteration",
          "type": "uint256"
        },
        {
          "indexed": false,
          "name": "winningTeam",
          "type": "bytes32"
        }
      ],
      "name": "WinningTeamDeclared",
      "type": "event"
    },
    {
      "anonymous": false,
      "inputs": [
        {
          "indexed": true,
          "name": "gameIterationCounter",
          "type": "uint256"
        },
        {
          "indexed": true,
          "name": "winnerAddress",
          "type": "address"
        },
        {
          "indexed": false,
          "name": "amountWon",
          "type": "uint256"
        }
      ],
      "name": "YouAreAWinner",
      "type": "event"
    },
    {
      "anonymous": false,
      "inputs": [
        {
          "indexed": true,
          "name": "gameIteration",
          "type": "uint256"
        }
      ],
      "name": "PayoutsCompleted",
      "type": "event"
    },
    {
      "constant": false,
      "inputs": [
        {
          "name": "_teamName",
          "type": "bytes32"
        }
      ],
      "name": "voteForTeam",
      "outputs": [],
      "payable": true,
      "stateMutability": "payable",
      "type": "function"
    },
    {
      "constant": false,
      "inputs": [],
      "name": "restartGame",
      "outputs": [],
      "payable": false,
      "stateMutability": "nonpayable",
      "type": "function"
    },
    {
      "constant": false,
      "inputs": [
        {
          "name": "winningTeam",
          "type": "bytes32"
        }
      ],
      "name": "declareWinner",
      "outputs": [],
      "payable": false,
      "stateMutability": "nonpayable",
      "type": "function"
    },
    {
      "constant": true,
      "inputs": [],
      "name": "getGameIteration",
      "outputs": [
        {
          "name": "",
          "type": "uint8"
        }
      ],
      "payable": false,
      "stateMutability": "view",
      "type": "function"
    },
    {
      "constant": true,
      "inputs": [],
      "name": "getCurrentState",
      "outputs": [
        {
          "name": "",
          "type": "uint8"
        }
      ],
      "payable": false,
      "stateMutability": "view",
      "type": "function"
    },
    {
      "constant": true,
      "inputs": [],
      "name": "getTeamNames",
      "outputs": [
        {
          "name": "",
          "type": "bytes32[]"
        }
      ],
      "payable": false,
      "stateMutability": "view",
      "type": "function"
    },
    {
      "constant": true,
      "inputs": [],
      "name": "getTeamCount",
      "outputs": [
        {
          "name": "",
          "type": "uint256"
        }
      ],
      "payable": false,
      "stateMutability": "view",
      "type": "function"
    },
    {
      "constant": true,
      "inputs": [],
      "name": "getTotalVoteCount",
      "outputs": [
        {
          "name": "",
          "type": "uint256"
        }
      ],
      "payable": false,
      "stateMutability": "view",
      "type": "function"
    },
    {
      "constant": true,
      "inputs": [],
      "name": "getTotalVoteBackingInWei",
      "outputs": [
        {
          "name": "",
          "type": "uint256"
        }
      ],
      "payable": false,
      "stateMutability": "view",
      "type": "function"
    },
    {
      "constant": true,
      "inputs": [
        {
          "name": "_teamName",
          "type": "bytes32"
        }
      ],
      "name": "getVoteCountForTeam",
      "outputs": [
        {
          "name": "",
          "type": "uint256"
        }
      ],
      "payable": false,
      "stateMutability": "view",
      "type": "function"
    },
    {
      "constant": true,
      "inputs": [
        {
          "name": "_teamName",
          "type": "bytes32"
        }
      ],
      "name": "getVoteBackingInWeiForTeam",
      "outputs": [
        {
          "name": "",
          "type": "uint256"
        }
      ],
      "payable": false,
      "stateMutability": "view",
      "type": "function"
    },
    {
      "constant": true,
      "inputs": [],
      "name": "getContractBalance",
      "outputs": [
        {
          "name": "",
          "type": "uint256"
        }
      ],
      "payable": false,
      "stateMutability": "view",
      "type": "function"
    },
    {
      "constant": true,
      "inputs": [
        {
          "name": "_teamName",
          "type": "bytes32"
        }
      ],
      "name": "validTeamName",
      "outputs": [
        {
          "name": "",
          "type": "bool"
        }
      ],
      "payable": false,
      "stateMutability": "view",
      "type": "function"
    }
  ],
  "bytecode": "0x60806040523480156200001157600080fd5b50604051620012a9380380620012a98339810180604052810190808051820192919050505060006001600660006101000a81548160ff021916908360ff1602179055506000600460006101000a81548160ff021916908360028111156200007457fe5b0217905550816005908051906020019062000091929190620001ce565b5033600460016101000a81548173ffffffffffffffffffffffffffffffffffffffff021916908373ffffffffffffffffffffffffffffffffffffffff160217905550600090505b6005805490508110156200012e576000806000600584815481101515620000fb57fe5b906000526020600020015460001916600019168152602001908152602001600020819055508080600101915050620000d8565b600660009054906101000a900460ff1660ff167ffadb9547847a0c2c31f4c02590545e318d33d7aae99071caecf3fa4ce3cd7dca600460019054906101000a900473ffffffffffffffffffffffffffffffffffffffff16604051808273ffffffffffffffffffffffffffffffffffffffff1673ffffffffffffffffffffffffffffffffffffffff16815260200191505060405180910390a250506200024e565b82805482825590600052602060002090810192821562000213579160200282015b8281111562000212578251829060001916905591602001919060010190620001ef565b5b50905062000222919062000226565b5090565b6200024b91905b80821115620002475760008160009055506001016200022d565b5090565b90565b61104b806200025e6000396000f3006080604052600436106100db576000357c0100000000000000000000000000000000000000000000000000000000900463ffffffff1680630da3f373146100e05780631ebee98f1461010b578063288c72e8146101625780632b628e891461018d578063378aa701146101be5780633d695778146101f75780635ae725f71461021b5780636f9fb98a146102645780638d25af041461028f57806392d79b76146102a65780639905a9f7146102d7578063d635d3b514610302578063db42fba11461036e578063dd730d8d146103b7578063f07d0a9e146103fc575b600080fd5b3480156100ec57600080fd5b506100f5610441565b6040518082815260200191505060405180910390f35b34801561011757600080fd5b5061012061044b565b604051808273ffffffffffffffffffffffffffffffffffffffff1673ffffffffffffffffffffffffffffffffffffffff16815260200191505060405180910390f35b34801561016e57600080fd5b50610177610471565b6040518082815260200191505060405180910390f35b34801561019957600080fd5b506101a261047b565b604051808260ff1660ff16815260200191505060405180910390f35b3480156101ca57600080fd5b506101d3610492565b604051808260028111156101e357fe5b60ff16815260200191505060405180910390f35b61021960048036038101908080356000191690602001909291905050506104a9565b005b34801561022757600080fd5b5061024660048036038101908080359060200190929190505050610706565b60405180826000191660001916815260200191505060405180910390f35b34801561027057600080fd5b50610279610729565b6040518082815260200191505060405180910390f35b34801561029b57600080fd5b506102a4610748565b005b3480156102b257600080fd5b506102d560048036038101908080356000191690602001909291905050506109ac565b005b3480156102e357600080fd5b506102ec610b63565b6040518082815260200191505060405180910390f35b34801561030e57600080fd5b50610317610b70565b6040518080602001828103825283818151815260200191508051906020019060200280838360005b8381101561035a57808201518184015260208101905061033f565b505050509050019250505060405180910390f35b34801561037a57600080fd5b5061039d6004803603810190808035600019169060200190929190505050610bcc565b604051808215151515815260200191505060405180910390f35b3480156103c357600080fd5b506103e66004803603810190808035600019169060200190929190505050610c2b565b6040518082815260200191505060405180910390f35b34801561040857600080fd5b5061042b6004803603810190808035600019169060200190929190505050610cd0565b6040518082815260200191505060405180910390f35b6000600354905090565b600460019054906101000a900473ffffffffffffffffffffffffffffffffffffffff1681565b6000600254905090565b6000600660009054906101000a900460ff16905090565b6000600460009054906101000a900460ff16905090565b60008060008060028111156104ba57fe5b600460009054906101000a900460ff1660028111156104d557fe5b1415156104e157600080fd5b6104ea84610bcc565b151561055e576040517f08c379a00000000000000000000000000000000000000000000000000000000081526004018080602001828103825260118152602001807f696e76616c6964207465616d206e616d6500000000000000000000000000000081525060200191505060405180910390fd5b3492503391508260008086600019166000191681526020019081526020016000206000828254019250508190555060016000856000191660001916815260200190815260200160002060408051908101604052808473ffffffffffffffffffffffffffffffffffffffff168152602001858152509080600181540180825580915050906001820390600052602060002090600202016000909192909190915060008201518160000160006101000a81548173ffffffffffffffffffffffffffffffffffffffff021916908373ffffffffffffffffffffffffffffffffffffffff16021790555060208201518160010155505050600160026000828254019250508190555082600360008282540192505081905550600660009054906101000a900460ff1660ff167f9d0213e97a05c089b451843d4514deabc8a0fc680cacfb14c3f9220af3ad568b838686604051808473ffffffffffffffffffffffffffffffffffffffff1673ffffffffffffffffffffffffffffffffffffffff1681526020018360001916600019168152602001828152602001935050505060405180910390a250505050565b60058181548110151561071557fe5b906000526020600020016000915090505481565b60003073ffffffffffffffffffffffffffffffffffffffff1631905090565b6000600460019054906101000a900473ffffffffffffffffffffffffffffffffffffffff1673ffffffffffffffffffffffffffffffffffffffff163373ffffffffffffffffffffffffffffffffffffffff161415156107a657600080fd5b60028060028111156107b457fe5b600460009054906101000a900460ff1660028111156107cf57fe5b1415156107db57600080fd5b60ff600660009054906101000a900460ff1660ff161415610817576000600660006101000a81548160ff021916908360ff160217905550610846565b6001600660008282829054906101000a900460ff160192506101000a81548160ff021916908360ff1602179055505b60006002819055506000600381905550600091505b6005805490508210156108ec5760008060058481548110151561087a57fe5b90600052602060002001546000191660001916815260200190815260200160002060009055600160006005848154811015156108b257fe5b90600052602060002001546000191660001916815260200190815260200160002060006108df9190610fad565b818060010192505061085b565b6000600460006101000a81548160ff0219169083600281111561090b57fe5b0217905550600660009054906101000a900460ff1660ff167ffadb9547847a0c2c31f4c02590545e318d33d7aae99071caecf3fa4ce3cd7dca600460019054906101000a900473ffffffffffffffffffffffffffffffffffffffff16604051808273ffffffffffffffffffffffffffffffffffffffff1673ffffffffffffffffffffffffffffffffffffffff16815260200191505060405180910390a25050565b600460019054906101000a900473ffffffffffffffffffffffffffffffffffffffff1673ffffffffffffffffffffffffffffffffffffffff163373ffffffffffffffffffffffffffffffffffffffff16141515610a0857600080fd5b6000806002811115610a1657fe5b600460009054906101000a900460ff166002811115610a3157fe5b141515610a3d57600080fd5b610a4682610bcc565b1515610ae0576040517f08c379a00000000000000000000000000000000000000000000000000000000081526004018080602001828103825260238152602001807f6e6f6e6578697374656e74207465616d2073656c65637465642061732077696e81526020017f6e6572000000000000000000000000000000000000000000000000000000000081525060400191505060405180910390fd5b6001600460006101000a81548160ff02191690836002811115610aff57fe5b0217905550600660009054906101000a900460ff1660ff167fbc868b1b9465a65360b5aacace0153826dc7e5298ea9d2b3ff739587c776b28c8360405180826000191660001916815260200191505060405180910390a2610b5f82610d71565b5050565b6000600580549050905090565b60606005805480602002602001604051908101604052809291908181526020018280548015610bc257602002820191906000526020600020905b81546000191681526020019060010190808311610baa575b5050505050905090565b600080600090505b600580549050811015610c20578260001916600582815481101515610bf557fe5b9060005260206000200154600019161415610c135760019150610c25565b8080600101915050610bd4565b600091505b50919050565b6000610c3682610bcc565b1515610caa576040517f08c379a00000000000000000000000000000000000000000000000000000000081526004018080602001828103825260118152602001807f696e76616c6964207465616d206e616d6500000000000000000000000000000081525060200191505060405180910390fd5b600160008360001916600019168152602001908152602001600020805490509050919050565b6000610cdb82610bcc565b1515610d4f576040517f08c379a00000000000000000000000000000000000000000000000000000000081526004018080602001828103825260118152602001807f696e76616c6964207465616d206e616d6500000000000000000000000000000081525060200191505060405180910390fd5b6000808360001916600019168152602001908152602001600020549050919050565b60008060008060008060006001806002811115610d8a57fe5b600460009054906101000a900460ff166002811115610da557fe5b141515610db157600080fd5b3073ffffffffffffffffffffffffffffffffffffffff16319750600160008a6000191660001916815260200190815260200160002096506000808a60001916600019168152602001908152602001600020549550600094505b8680549050851015610f3f578685815481101515610e2457fe5b906000526020600020906002020160000160009054906101000a900473ffffffffffffffffffffffffffffffffffffffff1693508685815481101515610e6657fe5b906000526020600020906002020160010154925085888402811515610e8757fe5b0491508373ffffffffffffffffffffffffffffffffffffffff166108fc839081150290604051600060405180830381858888f19350505050158015610ed0573d6000803e3d6000fd5b508373ffffffffffffffffffffffffffffffffffffffff16600660009054906101000a900460ff1660ff167f9a69694bc6b7c9fb50690d55ce1c8f269e2895d6992c998ddbb510f41862d374846040518082815260200191505060405180910390a38480600101955050610e0a565b6002600460006101000a81548160ff02191690836002811115610f5e57fe5b0217905550600660009054906101000a900460ff1660ff167fe3989d394db3160c62af2ba8a851ea9ee1cdbffb90140a678d4622aa61d9f18760405160405180910390a2505050505050505050565b5080546000825560020290600052602060002090810190610fce9190610fd1565b50565b61101c91905b8082111561101857600080820160006101000a81549073ffffffffffffffffffffffffffffffffffffffff0219169055600182016000905550600201610fd7565b5090565b905600a165627a7a7230582053a12b1805229f59eace2b069de741ffd061afc2df4ef0718a0b8bf2f9ebb2520029",
  "source": "pragma solidity ^0.4.2;\n// Specify compiler version we are using.\n// Note: this code is written using the latest solidity best practices,\n// for example using 'constructor(){}' rather than 'function GBWorldCupVotingGame(){}'\n// and using string return values for require() statements\n\ncontract GBWorldCupVotingGame {\n    \n    /* CONTRACT STATE VARIABLES */\n    \n    // State machine for this voting game,\n    // tracking which state of gameplay we are in.\n    enum GameState { \n        AcceptingVotes,\n        WinnerDeclared,\n        PayoutsCompleted\n    }\n    \n    // A vote object tracks the address of the account that voted\n    // and the Ether backing the account staked against the vote (denominated in wei)\n    struct Vote {\n        address voter;\n        uint voteBackingInWei;\n    }\n    \n    // keep track of total Ether backing for each team (denominated in wei)\n    mapping (bytes32 => uint) teamBackingInWei;\n    \n    // keep track of Votes for each team, so that payouts can be computed in the future\n    mapping (bytes32 => Vote[]) teamVotes;\n    \n    uint totalNumVotes;\n    uint totalVoteBacking;\n    \n    // We include the 'private' here just for educational purposes.\n    // The use of 'private' does not hide the value of the variable.\n    // Contract data storage (on EtherScan, e.g.) would still reveal value of 'currentState'.\n    // It simply prevents solidity from making an automatic getter function for it\n    GameState private currentState; \n    GameState private constant INITIAL_STATE = GameState.AcceptingVotes;\n    \n    // The ONLY address that is allowed to declare game outcome\n    // and restart game\n    address public gameReferee;\n    \n    // Solidity doesn't let you pass in an array of strings in the constructor (yet).\n    // We will use an array of bytes32 instead to store the list of teams\n    // available for voting.\n    bytes32[] public teamNames;\n  \n    // max value = 255\n    uint8 private gameIterationCounter;\n    \n    /* CUSTOM FUNCTION MODIFIERS */\n    \n    modifier forRefereeOnly() {\n        require(msg.sender == gameReferee);\n        _;\n    }\n    \n    modifier inState(GameState _state) {\n        require(currentState == _state);\n        _;\n    }\n    \n    /* EVENTS */\n    event GameStarted(uint indexed gameIteration, address referee);\n    event NewVote(uint indexed gameIteration, address voter, bytes32 teamName, uint backingInWei);\n    event WinningTeamDeclared(uint indexed gameIteration, bytes32 winningTeam);\n    event YouAreAWinner(uint indexed gameIterationCounter, address indexed winnerAddress, uint amountWon);\n    event PayoutsCompleted(uint indexed gameIteration);\n    \n    /* CONSTRUCTOR */\n    constructor(bytes32[] _teamNames) public {\n        \n        // This is the FIRST time the game is being played.\n        // subsequent iterations of the game will not require constructor to be called\n        gameIterationCounter = 1;\n        \n        // start out in the \"accepting votes\" state\n        currentState = INITIAL_STATE;\n        \n        // store a reference to this list of team names\n        // we'll be using it elsewhere in the contract\n        teamNames = _teamNames;\n        \n        // assign the role of referee to the creator of this contract\n        gameReferee = msg.sender;\n        \n        // go through each team name\n        for (uint i = 0; i < teamNames.length; i++) {\n            \n            // and initialize backing for all teams to zero.\n            // we'll increment this later as votes come in\n            teamBackingInWei[teamNames[i]] = 0;\n        }\n        \n        emit GameStarted(gameIterationCounter, gameReferee);\n    }\n    \n    /* FUNCTIONS (TRANSACTIONS) \n     * \n     * These change the state of our system,\n     * and take time to return.\n     */\n    \n    function voteForTeam(bytes32 _teamName) public payable inState(GameState.AcceptingVotes) {\n        \n        require(validTeamName(_teamName), \"invalid team name\");\n        \n        uint _voteBackingInWei = msg.value;\n        address _voter = msg.sender;\n        \n        teamBackingInWei[_teamName] += _voteBackingInWei;\n        teamVotes[_teamName].push(Vote({\n            voter: _voter,\n            voteBackingInWei: _voteBackingInWei\n        }));\n        \n        totalNumVotes += 1;\n        totalVoteBacking += _voteBackingInWei;\n\n        emit NewVote(gameIterationCounter, _voter, _teamName, _voteBackingInWei);\n    }\n    \n    // can only restart game once payouts are completed\n    function restartGame() public forRefereeOnly() inState(GameState.PayoutsCompleted) {\n        \n        // pro-actively handle overflow\n        if (gameIterationCounter == 255)\n            gameIterationCounter = 0;\n        else\n            gameIterationCounter += 1;\n\n        totalNumVotes = 0;\n        totalVoteBacking = 0;\n\n        // this should recover some gas\n        for(uint i = 0; i < teamNames.length; i++) {\n            delete teamBackingInWei[teamNames[i]];\n            delete teamVotes[teamNames[i]];\n        }\n\n        // reset state\n        currentState = GameState.AcceptingVotes;\n\n        emit GameStarted(gameIterationCounter, gameReferee);\n    }\n\n    function declareWinner(bytes32 winningTeam) public forRefereeOnly() inState(GameState.AcceptingVotes) {\n\n        require(validTeamName(winningTeam), \"nonexistent team selected as winner\");\n\n        //update state and log event\n        currentState = GameState.WinnerDeclared;\n        emit WinningTeamDeclared(gameIterationCounter, winningTeam);\n\n        //call internal function to pay out winners\n        _doPayouts(winningTeam);\n    }\n    \n    // \"private\" means this function is only visible to this contract.\n    // can only be called from within this contract\n    function _doPayouts(bytes32 winningTeam) private inState(GameState.WinnerDeclared) {\n        \n        // money to be split\n        uint totalWeiToBeSplit = address(this).balance;\n\n        // identify winning Votes.\n        // note: arrays and structs are stored in 'storage' \n        // rather than memory eventhough they're local vars\n        Vote[] storage winningVotes = teamVotes[winningTeam];\n\n        // PAYOUT ALGORITHM:\n        //\n        // Voters who voted for the winning team split the pool of ether\n        // staked by all voters (including losers).\n        //\n        // The fraction of the overall pool that each correct voter receives\n        // is equal to:\n        //\n        // Voter's individual backing for the winning team / total backing for the winning team\n\n        // identify total Wei backing for this winning team\n        uint totalBackingForWinningTeam = teamBackingInWei[winningTeam];\n\n        // identify each voter's payout as a fraction of overall backing pool\n        for(uint i = 0; i < winningVotes.length; i++) {\n            \n            // WHO\n            address winningVoter = winningVotes[i].voter;\n            \n            // HOW MUCH HE OR SHE PUT IN\n            uint winningVotersBacking = winningVotes[i].voteBackingInWei;\n\n            // PAYOUT = WINNING FRACTION * TOTAL TO BE SPLIT\n            // \n            // NOTE: the 'fixed' datatype (a.k.a float or double in other languages) is \n            // not yet fully supported in solidity so rather than\n            // separately calculating winning fraction and then multiplying\n            // total by fraction, we re-order the math to avoid truncation. \n            //\n            // 'amountWon' will still be truncated to an integer value but because it's denominated\n            // in Wei, the trunctation error is miniscule as a fraction of the voter's backing\n            uint amountWon = winningVotersBacking * totalWeiToBeSplit / totalBackingForWinningTeam;\n\n            // send the money\n            winningVoter.transfer(amountWon);\n\n            // log that we sent the money to this winner\n            emit YouAreAWinner(gameIterationCounter, winningVoter, amountWon);\n        }\n\n        //finally, update state \n        currentState = GameState.PayoutsCompleted;\n\n        // log that payouts were completed so that listening web3 clients\n        // can update their UI state\n        emit PayoutsCompleted(gameIterationCounter);\n    }\n    \n    /* FUNCTIONS (CALLS) \n     * \n     * These do not change the state of our system,\n     * and return immediately.\n     */\n\n    function getGameIteration() public view returns (uint8){\n        return gameIterationCounter;\n    }\n\n    function getCurrentState() public view returns (GameState) {\n        return currentState;\n    }\n\n    function getTeamNames() public view returns (bytes32[]) {\n        return teamNames;\n    }\n\n    function getTeamCount() public view returns (uint) {\n        return teamNames.length;\n    }\n    \n    function getTotalVoteCount() public view returns (uint) {\n        return totalNumVotes;\n    }\n    \n    function getTotalVoteBackingInWei() public view returns (uint) {\n        return totalVoteBacking;\n    }\n    \n    function getVoteCountForTeam(bytes32 _teamName) public view returns (uint) {\n        require(validTeamName(_teamName), \"invalid team name\");\n        \n        return teamVotes[_teamName].length;\n    } \n    \n    function getVoteBackingInWeiForTeam(bytes32 _teamName) public view returns (uint) {\n        require(validTeamName(_teamName), \"invalid team name\");\n        \n        return teamBackingInWei[_teamName];\n    }\n\n    // this should return the same value as getTotalVoteBackingInWei().\n    // we create it for testing purposes\n    // and use in our truffle scripts for educational purposes\n    function getContractBalance() public view returns (uint) {\n        return address(this).balance;\n    }\n    \n    function validTeamName(bytes32 _teamName) public view returns (bool) {\n        for(uint i = 0; i < teamNames.length; i++) {\n            if (teamNames[i] == _teamName) {\n                return true;\n            }\n        }\n        return false;\n    }\n}",
  "sourcePath": "/Users/anshulbhagi/Development/worldcup-voting-dapp-react/contracts/GBWorldCupVotingGame.sol",
  "compiler": {
    "name": "solc",
    "version": "0.4.24+commit.e67f0147.Emscripten.clang"
  },
  "schemaVersion": "2.0.0",
  "updatedAt": "2018-07-14T10:18:13.849Z"
}